:100000000C942A000C9445000C9445000C94450077
:100010000C9445000C9445000C9445000C9445004C
:100020000C9445000C9445000C9445000C94790404
:100030000C9445000C9445000C9445000C9445002C
:100040000C947A040C9445000C9445000C944500E3
:100050000C94450011241FBECFE5D8E0DEBFCDBF14
:1000600010E0A0E6B0E0EEEBFBE002C005900D92E0
:10007000A036B107D9F711E0A0E6B0E001C01D92AB
:10008000A236B107E1F70C9408010C940000A3E03C
:10009000B0E0EDE4F0E00C94B80569837A838B83DB
:1000A000582F29813A814423A1F121303105A9F04B
:1000B0002130310540F022303105B9F023303105CF
:1000C00009F062C01CC02BB381E090E002C0880F31
:1000D000991F5A95E2F7282B33C088B302C0220F2C
:1000E000331F5A95E2F7822B36C025B381E090E0AA
:1000F00002C0880F991F5A95E2F7282B38C022B307
:1001000081E090E002C0880F991F5A95E2F7282BF2
:100110003AC021303105B1F02130310538F02230BC
:100120003105D9F02330310579F523C02BB381E0B7
:1001300090E002C0880F991F5A95E2F78095282316
:100140002BBB22C088B302C0220F331F5A95E2F79F
:10015000922F9095892388BB17C025B381E090E04A
:1001600002C0880F991F5A95E2F78095282325BB76
:100170000BC022B381E090E002C0880F991F5A950E
:10018000E2F78095282322BBE2E023960C94D40565
:10019000A3E0B0E0EEECF0E00C94B80569837A835C
:1001A0008B83382F49815A814130510571F041309C
:1001B000510548F04230510589F04330510581F036
:1001C00080E090E018C029B30CC086B302C0440F91
:1001D000551F3A95E2F7842399270DC023B301C038
:1001E00020B381E090E002C0880F991F3A95E2F7B2
:1001F0002823822F9927E2E023960C94D405C498F3
:100200008FB9779BFECF6FB9779BFECFC49A0895C5
:10021000C8E3D8E0DEBFCDBF81E090E09C838B8354
:1002200021E02D839F838E8322E028879A87898708
:1002300083E08B8782E090E09D878C871E86988B79
:100240008F8726E0298B9B8B8A8B87E08C8B1E8A7D
:100250001D8A2F8B198E188E8A8F1C8E1B8E85E01F
:100260008D8FB998C19ABA9AC29ABB9AC39AA0982C
:10027000A89AA69AAE9AA798AF9AD69ADE9AD79AD3
:10028000DF9AD59ADD9A41E06B8D7C8D8D8D0E9431
:1002900047008E01025E1F4FF80111928F0141E06D
:1002A0006D897E898F890E94470040E06D897E8933
:1002B0008F890E944700CE0186960817190761F7BB
:1002C0000E940C05789480E58DB987B3806B87BB5D
:1002D00067E08BE00E94FF006FE08AE00E94FF0071
:1002E00011E0612F812F0E94FF001F5F1930C9F7B5
:1002F00061E08CE00E94FF0060E08FE00E94FF0060
:1003000010E060E470E0611B710975956795759563
:1003100067958AE00E94FF006C857D858E850E942E
:10032000C800882309F41F5F80E09DE70197F1F77B
:10033000103438F311E060E0812F0E94FF001F5F4E
:100340001930C9F76FE08AE00E94FF002224DD2403
:100350001FA2F1E0FEA312BA11BAF0C040E06E8114
:100360007F8188850E944700DD2021F420B2F1E0E2
:10037000DF2EDEC010B3822D82958F70853009F498
:100380004BC0863040F48330A1F0843070F482306A
:1003900009F0CDC011C0873009F45DC0873008F482
:1003A00056C0883009F0C3C075C01F70612F8FE040
:1003B0006EC0612F8AE06BC0412F4F70822D99274C
:1003C0008F7090709E01225E3F4FE42FFF271295A1
:1003D0001F70612F7727892B69F4E20FF31F81E0EB
:1003E00090E002C0880F991F6A95E2F780952081FE
:1003F00028230BC0E20FF31F81E090E002C0880FBA
:10040000991F6A95E2F72081282B2083FE01E40FD3
:10041000F11D668D842F3AC0812F99279C01207F82
:1004200030708F709070892B49F0E4E035952795F6
:10043000EA95E1F7822F0E94460479C074E0359571
:1004400027957A95E1F7822F0E94610470C01F7092
:10045000612F8CE01CC08EA1813089F400E06EE138
:10046000E62EF12CEC0EFD1EF70111927F010F5FBD
:1004700060E0802F0E94FF000830B1F71EA2822D9D
:100480008770FE01E80FF11D168F612F8F5F0E94AC
:10049000FF004DC0FEA1F13089F400E05EE1E52EE1
:1004A000F12CEC0EFD1EF70111927F010F5F60E051
:1004B000802F0E94FF000830B1F71EA2022D0770A6
:1004C000CC24DD244EE1E42EF12CEC0EFD1E812F18
:1004D00099270C2C02C0959587950A94E2F7402F36
:1004E0005527F701208180FF09C081E090E002C01C
:1004F000880F991F4A95E2F7282B0AC081E090E007
:1005000002C0880F991F4A95E2F780952823F701CA
:100510002083F70161917F018C2D8F5F0E94FF0086
:100520000894C11CD11CF8E0CF16D10481F6DD245B
:1005300041E06E817F8188850E9447006B817C81CC
:100540008D810E94C800882309F408CF81E0D81665
:1005500031F4EFA1EF5FEFA3E13510F0DD241FA22E
:1005600012BA8FEF81BB40E06B8D7C8D8D8D0E9428
:1005700047008824992432E5E32E31E0F32E22E06F
:10058000422E21E0522E9AE5A92E91E0B92E8AE45E
:10059000682E81E0782E382C41E06D897E898F8924
:1005A0000E94470040E06D897E898F890E94470044
:1005B00041E06B8D7C8D8D8D0E944700F70180811D
:1005C000F201808340E06F85788989890E94470025
:1005D00041E06F85788989890E94470000E010E03A
:1005E000C02E6A897B898C890E94C800F70120810E
:1005F000882351F481E090E0002E02C0880F991FFB
:100600000A94E2F7282B0BC081E090E0002E02C094
:10061000880F991F0A94E2F780952823F701208319
:100620006C2D832D0E942505F5012081822F9927AD
:10063000002E02C0959587950A94E2F780FF37C097
:1006400081E090E0002E02C0880F991F0A94E2F723
:10065000809528232083F30160817727002E02C034
:10066000759567950A94E2F76170232D4C2DCE01A4
:1006700001960E94BB0441E069857A858B850E94C2
:100680004700898182BB40E069857A858B850E941D
:10069000470041E069857A858B850E9447008A8101
:1006A00082BB40E069857A858B850E94470041E0E6
:1006B000688D798D8A8D0E94470040E0688D798D24
:1006C0008A8D0E9447000F5F1F4F0830110509F007
:1006D00087CF0894811C911C0894E11CF11C08949C
:1006E000411C511C0894A11CB11C0894611C711C74
:1006F000F8E08F16910409F04ECFEE24FF2405E8B0
:1007000010E0F8018481813029F5408151816E2DFE
:10071000CE0101960E94C60441E069857A858B85E9
:100720000E944700898182BB40E069857A858B857C
:100730000E94470041E069857A858B850E944700C9
:100740008A8182BB40E069857A858B850E9447005B
:10075000F80114820894E11CF11C085D1F4FF4E0BD
:10076000EF16F10471F6F7CD89B78E7F89BF13BEFE
:10077000359837983398089580B7806880BF86B1E0
:10078000876086B9359A379A339A84E083BF89B7F0
:10079000816089BF089540E050E0A2E8B0E020E029
:1007A00030E011961C921E92FD0114821382128277
:1007B000F901EE59FF4F80E0119211928F5F803165
:1007C000D9F74F5F5F4F285D3F4F989644305105F2
:1007D00041F708950E94CB030E94BC0308950F9334
:1007E0001F93CF93DF93082F112788E290E0089F93
:1007F000D001099FB00D189FB00D1124AE59BF4F05
:10080000ED0128A139A14AA184E190E0089FF001FF
:10081000099FF00D189FF00D1124E40FF11DEE0F4C
:10082000FF1FEE59FF4F80819181281B390B260F46
:10083000371F39A328A3718360838BA19CA19EA33A
:100840008DA384E0369527958A95E1F73CA32BA3E9
:100850004F5F4AA3403108F01AA2809160009927A7
:1008600002C0959587950A95E2F780FF0AC0FD01C1
:1008700023A134A185A196A12817390711F081E0A1
:1008800087A3DF91CF911F910F9108951F93182F88
:100890008430A8F48091600099278F709070892B24
:1008A00011F40E94EA0381E090E002C0880F991FD2
:1008B0001A95E2F720916000282B209360001F9189
:1008C0000895282F8430A0F481E090E002C0880FC2
:1008D000991F2A95E2F780952091600082238093EA
:1008E000600099278F709070892B11F40E94B403D7
:1008F000089518951F920F920FB60F9211241F930F
:100900002F933F934F935F936F937F938F939F9317
:10091000AF93BF93EF93FF9364B1772785B11091A5
:1009200061009927982F8827682B792B812F0E94A7
:10093000EF031F5F10936100143010F010926100FC
:1009400087B1807F87B997B1809161008F70982BB4
:1009500097B9FF91EF91BF91AF919F918F917F9147
:100960006F915F914F913F912F911F910F900FBE0B
:100970000F901F901895FC011082662311F081E002
:1009800080834295407F422B41830895FC01852F4F
:1009900099278370660F660F6C706061862B808369
:1009A00041830895FC01606260834295407F422B41
:1009B00041830895FC0180E3808361830895FC01F5
:1009C00080E480831182662311F081E081830895A1
:1009D000FC0180E58083772794E0660F771F9A9566
:1009E000E1F780E0411181E0862B81830895FC01CD
:1009F00080E680831182662311F081E0818308956F
:100A0000FC016F706067608341830895FC016F7023
:100A10006068608341830895CF93DF93E2E5F1E05E
:100A200082E091E0CAE4D1E04AE551E01192DC01B4
:100A30001D92CD011992DA011D92AD01B1E0EA35A6
:100A4000FB07A1F7DF91CF910895CF93DF93A82FF4
:100A5000BB27FD01EE5AFE4F50817727FD01EE5F67
:100A6000FE4F808185279927062E02C09595879590
:100A70000A94E2F7ED01C65BDE4F80FF2FC02881AC
:100A8000852F82279927062E02C0959587950A946F
:100A9000E2F780FF5AC0852F9927062E02C0959550
:100AA00087950A94E2F780FF0DC081E090E002C0D4
:100AB000880F991F6A95E2F7A65ABE4F8C93282B90
:100AC000288343C093E0AA0FBB1F9A95E1F7A65F66
:100AD000BE4FA60FB71F8CE08C9337C04881852F7F
:100AE00084279927062E02C0959587950A94E2F7E8
:100AF00080FF2BC0FD0183E0EE0FFF1F8A95E1F719
:100B0000E65FFE4FE60FF71F80818823F1F08150EA
:100B100080838823D1F421E030E0062E02C0220F2A
:100B2000331F0A94E2F7A65ABE4F2C93852F9927BC
:100B300002C0959587956A95E2F780FF02C0422B27
:100B400003C0822F809548234883DF91CF91089579
:100B50002F923F924F925F926F927F928F929F92CD
:100B6000AF92BF92CF92DF92EF92FF920F931F93BB
:100B7000CF93DF93CDB7DEB7CA1BDB0B0FB6F8946C
:100B8000DEBF0FBECDBF09942A88398848885F84AC
:100B90006E847D848C849B84AA84B984C884DF801D
:100BA000EE80FD800C811B81AA81B981CE0FD11D01
:0E0BB0000FB6F894DEBF0FBECDBFED01089565
:00000001FF
